:060000000A128A110C280F
:10000800FE00030EF1000A08F2000A128A114A28BB
:100018000A128A110F2883010A128A1113280A1258
:100028008A117A200A128A110A128A1194200A1255
:100038008A110A128A1166200A128A110A128A1172
:100048008B200A128A11831203139F149F182D28DC
:100058002E282A281F0CF400740C0F39003A031DAF
:10006800362837283C281F08C33904389F003E2803
:10007800C3309F051030F400F40B402800008312B1
:1000880003139F142A280A128A110C2883120313B7
:100098000C1F4F2850285F280C131F0CF000700C01
:1000A8000F39003A031D59285A285D281E08870071
:1000B8005F281E08880072088A00710E8300FE0EF1
:1000C8007E0E0900831603139F131F129F128312BB
:1000D80003131F083F3940389F00C3309F051F1482
:1000E8001030F300F30B7628000008000330831665
:1000F80003178800890103308316031385008701DD
:1001080088018312031385018801870108008B1772
:100118000B17831603130C17831203130C13080011
:10012800831603130F088F3960388F000F140800E7
:08400000FF3FFF3FFF3FFF3FC0
:04400E00D420FF3F7C
:00000001FF
